{
  "contractName": "RedEnvelope",
  "abi": [
    {
      "inputs": [],
      "stateMutability": "nonpayable",
      "type": "constructor"
    },
    {
      "anonymous": false,
      "inputs": [
        {
          "indexed": false,
          "internalType": "address",
          "name": "grabber",
          "type": "address"
        },
        {
          "indexed": false,
          "internalType": "uint256",
          "name": "amount",
          "type": "uint256"
        },
        {
          "indexed": false,
          "internalType": "uint256",
          "name": "grabIndex",
          "type": "uint256"
        }
      ],
      "name": "RedEnvelopeGrabbed",
      "type": "event"
    },
    {
      "anonymous": false,
      "inputs": [
        {
          "indexed": false,
          "internalType": "uint256",
          "name": "totalAmount",
          "type": "uint256"
        },
        {
          "indexed": false,
          "internalType": "uint256",
          "name": "count",
          "type": "uint256"
        },
        {
          "indexed": false,
          "internalType": "bool",
          "name": "isEqual",
          "type": "bool"
        }
      ],
      "name": "RedEnvelopeSet",
      "type": "event"
    },
    {
      "inputs": [],
      "name": "count",
      "outputs": [
        {
          "internalType": "uint256",
          "name": "",
          "type": "uint256"
        }
      ],
      "stateMutability": "view",
      "type": "function",
      "constant": true
    },
    {
      "inputs": [
        {
          "internalType": "address",
          "name": "",
          "type": "address"
        }
      ],
      "name": "grabInfos",
      "outputs": [
        {
          "internalType": "uint256",
          "name": "amount",
          "type": "uint256"
        },
        {
          "internalType": "bool",
          "name": "hasGrabbed",
          "type": "bool"
        },
        {
          "internalType": "uint256",
          "name": "grabTime",
          "type": "uint256"
        },
        {
          "internalType": "uint256",
          "name": "grabIndex",
          "type": "uint256"
        }
      ],
      "stateMutability": "view",
      "type": "function",
      "constant": true
    },
    {
      "inputs": [],
      "name": "grabbedCount",
      "outputs": [
        {
          "internalType": "uint256",
          "name": "",
          "type": "uint256"
        }
      ],
      "stateMutability": "view",
      "type": "function",
      "constant": true
    },
    {
      "inputs": [
        {
          "internalType": "uint256",
          "name": "",
          "type": "uint256"
        }
      ],
      "name": "grabbers",
      "outputs": [
        {
          "internalType": "address",
          "name": "",
          "type": "address"
        }
      ],
      "stateMutability": "view",
      "type": "function",
      "constant": true
    },
    {
      "inputs": [],
      "name": "isEqual",
      "outputs": [
        {
          "internalType": "bool",
          "name": "",
          "type": "bool"
        }
      ],
      "stateMutability": "view",
      "type": "function",
      "constant": true
    },
    {
      "inputs": [],
      "name": "isRedEnvelopeSet",
      "outputs": [
        {
          "internalType": "bool",
          "name": "",
          "type": "bool"
        }
      ],
      "stateMutability": "view",
      "type": "function",
      "constant": true
    },
    {
      "inputs": [],
      "name": "owner",
      "outputs": [
        {
          "internalType": "address",
          "name": "",
          "type": "address"
        }
      ],
      "stateMutability": "view",
      "type": "function",
      "constant": true
    },
    {
      "inputs": [],
      "name": "redOwner",
      "outputs": [
        {
          "internalType": "address payable",
          "name": "",
          "type": "address"
        }
      ],
      "stateMutability": "view",
      "type": "function",
      "constant": true
    },
    {
      "inputs": [],
      "name": "totalAmount",
      "outputs": [
        {
          "internalType": "uint256",
          "name": "",
          "type": "uint256"
        }
      ],
      "stateMutability": "view",
      "type": "function",
      "constant": true
    },
    {
      "inputs": [
        {
          "internalType": "uint256",
          "name": "_count",
          "type": "uint256"
        },
        {
          "internalType": "bool",
          "name": "_isEqual",
          "type": "bool"
        }
      ],
      "name": "setRedEnvelope",
      "outputs": [],
      "stateMutability": "payable",
      "type": "function",
      "payable": true
    },
    {
      "inputs": [],
      "name": "grabRedEnvelope",
      "outputs": [],
      "stateMutability": "nonpayable",
      "type": "function"
    },
    {
      "inputs": [
        {
          "internalType": "address",
          "name": "user",
          "type": "address"
        }
      ],
      "name": "getUserGrabInfo",
      "outputs": [
        {
          "internalType": "uint256",
          "name": "amount",
          "type": "uint256"
        },
        {
          "internalType": "bool",
          "name": "hasGrabbed",
          "type": "bool"
        },
        {
          "internalType": "uint256",
          "name": "grabTime",
          "type": "uint256"
        },
        {
          "internalType": "uint256",
          "name": "grabIndex",
          "type": "uint256"
        }
      ],
      "stateMutability": "view",
      "type": "function",
      "constant": true
    },
    {
      "inputs": [],
      "name": "getAllGrabbers",
      "outputs": [
        {
          "internalType": "address[]",
          "name": "",
          "type": "address[]"
        }
      ],
      "stateMutability": "view",
      "type": "function",
      "constant": true
    },
    {
      "inputs": [],
      "name": "getRemainingCount",
      "outputs": [
        {
          "internalType": "uint256",
          "name": "",
          "type": "uint256"
        }
      ],
      "stateMutability": "view",
      "type": "function",
      "constant": true
    },
    {
      "inputs": [],
      "name": "getContractBalance",
      "outputs": [
        {
          "internalType": "uint256",
          "name": "",
          "type": "uint256"
        }
      ],
      "stateMutability": "view",
      "type": "function",
      "constant": true
    }
  ],
  "bytecode": "0x608060405234801561001057600080fd5b50336000806101000a81548173ffffffffffffffffffffffffffffffffffffffff021916908373ffffffffffffffffffffffffffffffffffffffff160217905550611672806100606000396000f3fe608060405260043610610105576000357c0100000000000000000000000000000000000000000000000000000000900480636f9fb98a116100a7578063b3d3284d11610076578063b3d3284d146102e9578063d56f927e14610326578063e76b648314610366578063ed9d3c0e1461039157610105565b80636f9fb98a14610228578063731959cd146102535780638da5cb5b14610293578063acbe8452146102be57610105565b8063455cc087116100e3578063455cc0871461018b578063482a28a3146101a75780634fcf8f6c146101d257806351231e3c146101fd57610105565b806306661abd1461010a5780631a39d8ef1461013557806335e656cb14610160575b600080fd5b34801561011657600080fd5b5061011f6103a8565b60405161012c9190610d1b565b60405180910390f35b34801561014157600080fd5b5061014a6103ae565b6040516101579190610d1b565b60405180910390f35b34801561016c57600080fd5b506101756103b4565b6040516101829190610d51565b60405180910390f35b6101a560048036038101906101a09190610dc9565b6103c7565b005b3480156101b357600080fd5b506101bc610659565b6040516101c99190610d1b565b60405180910390f35b3480156101de57600080fd5b506101e761068e565b6040516101f49190610d1b565b60405180910390f35b34801561020957600080fd5b50610212610694565b60405161021f9190610ef9565b60405180910390f35b34801561023457600080fd5b5061023d610722565b60405161024a9190610d1b565b60405180910390f35b34801561025f57600080fd5b5061027a60048036038101906102759190610f47565b610741565b60405161028a9493929190610f74565b60405180910390f35b34801561029f57600080fd5b506102a861077e565b6040516102b59190610fc8565b60405180910390f35b3480156102ca57600080fd5b506102d36107a2565b6040516102e09190610d51565b60405180910390f35b3480156102f557600080fd5b50610310600480360381019061030b9190610fe3565b6107b5565b60405161031d9190610fc8565b60405180910390f35b34801561033257600080fd5b5061034d60048036038101906103489190610f47565b6107f4565b60405161035d9493929190610f74565b60405180910390f35b34801561037257600080fd5b5061037b6108a5565b6040516103889190611031565b60405180910390f35b34801561039d57600080fd5b506103a66108cb565b005b60035481565b60025481565b600660009054906101000a900460ff1681565b600660009054906101000a900460ff1615610417576040517f08c379a000000000000000000000000000000000000000000000000000000000815260040161040e906110cf565b60405180910390fd5b6000341161045a576040517f08c379a000000000000000000000000000000000000000000000000000000000815260040161045190611161565b60405180910390fd5b6000821161049d576040517f08c379a0000000000000000000000000000000000000000000000000000000008152600401610494906111cd565b60405180910390fd5b60005b60088054905081101561056c5760076000600883815481106104c5576104c46111ed565b5b9060005260206000200160009054906101000a900473ffffffffffffffffffffffffffffffffffffffff1673ffffffffffffffffffffffffffffffffffffffff1673ffffffffffffffffffffffffffffffffffffffff1681526020019081526020016000206000808201600090556001820160006101000a81549060ff021916905560028201600090556003820160009055505080806105649061124b565b9150506104a0565b506008600061057b9190610cc4565b33600160006101000a81548173ffffffffffffffffffffffffffffffffffffffff021916908373ffffffffffffffffffffffffffffffffffffffff160217905550346002819055508160038190555080600460006101000a81548160ff02191690831515021790555060006005819055506001600660006101000a81548160ff0219169083151502179055507f78868f0817667eb82eec0ee8b39cc746aa981ee2cd2fc096c672e395fca9a0f0600254600354600460009054906101000a900460ff1660405161064d93929190611293565b60405180910390a15050565b6000600660009054906101000a900460ff16610678576000905061068b565b60055460035461068891906112ca565b90505b90565b60055481565b6060600880548060200260200160405190810160405280929190818152602001828054801561071857602002820191906000526020600020905b8160009054906101000a900473ffffffffffffffffffffffffffffffffffffffff1673ffffffffffffffffffffffffffffffffffffffff16815260200190600101908083116106ce575b5050505050905090565b60003073ffffffffffffffffffffffffffffffffffffffff1631905090565b60076020528060005260406000206000915090508060000154908060010160009054906101000a900460ff16908060020154908060030154905084565b60008054906101000a900473ffffffffffffffffffffffffffffffffffffffff1681565b600460009054906101000a900460ff1681565b600881815481106107c557600080fd5b906000526020600020016000915054906101000a900473ffffffffffffffffffffffffffffffffffffffff1681565b6000806000806000600760008773ffffffffffffffffffffffffffffffffffffffff1673ffffffffffffffffffffffffffffffffffffffff168152602001908152602001600020604051806080016040529081600082015481526020016001820160009054906101000a900460ff1615151515815260200160028201548152602001600382015481525050905080600001518160200151826040015183606001519450945094509450509193509193565b600160009054906101000a900473ffffffffffffffffffffffffffffffffffffffff1681565b600660009054906101000a900460ff1661091a576040517f08c379a00000000000000000000000000000000000000000000000000000000081526004016109119061134a565b60405180910390fd5b600760003373ffffffffffffffffffffffffffffffffffffffff1673ffffffffffffffffffffffffffffffffffffffff16815260200190815260200160002060010160009054906101000a900460ff16156109aa576040517f08c379a00000000000000000000000000000000000000000000000000000000081526004016109a1906113dc565b60405180910390fd5b600354600554106109f0576040517f08c379a00000000000000000000000000000000000000000000000000000000081526004016109e79061146e565b60405180910390fd5b6000600460009054906101000a900460ff1615610a1e57600354600254610a1791906114bd565b9050610ae9565b6001600354610a2d91906112ca565b60055403610a54573073ffffffffffffffffffffffffffffffffffffffff16319050610ae8565b60006001600554600354610a6891906112ca565b610a7291906112ca565b90506000813073ffffffffffffffffffffffffffffffffffffffff1631610a9991906112ca565b90506001814233600554604051602001610ab593929190611563565b6040516020818303038152906040528051906020012060019004610ad991906115a0565b610ae391906115d1565b925050505b5b60405180608001604052808281526020016001151581526020014281526020016001600554610b1891906115d1565b815250600760003373ffffffffffffffffffffffffffffffffffffffff1673ffffffffffffffffffffffffffffffffffffffff1681526020019081526020016000206000820151816000015560208201518160010160006101000a81548160ff02191690831515021790555060408201518160020155606082015181600301559050506008339080600181540180825580915050600190039060005260206000200160009091909190916101000a81548173ffffffffffffffffffffffffffffffffffffffff021916908373ffffffffffffffffffffffffffffffffffffffff16021790555060056000815480929190610c119061124b565b919050555060035460055403610c3d576000600660006101000a81548160ff0219169083151502179055505b3373ffffffffffffffffffffffffffffffffffffffff166108fc829081150290604051600060405180830381858888f19350505050158015610c83573d6000803e3d6000fd5b507fdff38b1e43feed8fc6e3fe9d66eabdc4bb418175ed6176eb9ec42d4a6c1873f43382600554604051610cb993929190611605565b60405180910390a150565b5080546000825590600052602060002090810190610ce29190610ce5565b50565b5b80821115610cfe576000816000905550600101610ce6565b5090565b6000819050919050565b610d1581610d02565b82525050565b6000602082019050610d306000830184610d0c565b92915050565b60008115159050919050565b610d4b81610d36565b82525050565b6000602082019050610d666000830184610d42565b92915050565b600080fd5b610d7a81610d02565b8114610d8557600080fd5b50565b600081359050610d9781610d71565b92915050565b610da681610d36565b8114610db157600080fd5b50565b600081359050610dc381610d9d565b92915050565b60008060408385031215610de057610ddf610d6c565b5b6000610dee85828601610d88565b9250506020610dff85828601610db4565b9150509250929050565b600081519050919050565b600082825260208201905092915050565b6000819050602082019050919050565b600073ffffffffffffffffffffffffffffffffffffffff82169050919050565b6000610e6082610e35565b9050919050565b610e7081610e55565b82525050565b6000610e828383610e67565b60208301905092915050565b6000602082019050919050565b6000610ea682610e09565b610eb08185610e14565b9350610ebb83610e25565b8060005b83811015610eec578151610ed38882610e76565b9750610ede83610e8e565b925050600181019050610ebf565b5085935050505092915050565b60006020820190508181036000830152610f138184610e9b565b905092915050565b610f2481610e55565b8114610f2f57600080fd5b50565b600081359050610f4181610f1b565b92915050565b600060208284031215610f5d57610f5c610d6c565b5b6000610f6b84828501610f32565b91505092915050565b6000608082019050610f896000830187610d0c565b610f966020830186610d42565b610fa36040830185610d0c565b610fb06060830184610d0c565b95945050505050565b610fc281610e55565b82525050565b6000602082019050610fdd6000830184610fb9565b92915050565b600060208284031215610ff957610ff8610d6c565b5b600061100784828501610d88565b91505092915050565b600061101b82610e35565b9050919050565b61102b81611010565b82525050565b60006020820190506110466000830184611022565b92915050565b600082825260208201905092915050565b7f52656420656e76656c6f706520616c7265616479206578697374732c2075736560008201527f2072657365742066697273740000000000000000000000000000000000000000602082015250565b60006110b9602c8361104c565b91506110c48261105d565b604082019050919050565b600060208201905081810360008301526110e8816110ac565b9050919050565b7f596f75206d7573742073656e6420736f6d6520657468657220746f206372656160008201527f746520612072656420656e76656c6f7065000000000000000000000000000000602082015250565b600061114b60318361104c565b9150611156826110ef565b604082019050919050565b6000602082019050818103600083015261117a8161113e565b9050919050565b7f436f756e74206d7573742062652067726561746572207468616e203000000000600082015250565b60006111b7601c8361104c565b91506111c282611181565b602082019050919050565b600060208201905081810360008301526111e6816111aa565b9050919050565b7f4e487b7100000000000000000000000000000000000000000000000000000000600052603260045260246000fd5b7f4e487b7100000000000000000000000000000000000000000000000000000000600052601160045260246000fd5b600061125682610d02565b91507fffffffffffffffffffffffffffffffffffffffffffffffffffffffffffffffff82036112885761128761121c565b5b600182019050919050565b60006060820190506112a86000830186610d0c565b6112b56020830185610d0c565b6112c26040830184610d42565b949350505050565b60006112d582610d02565b91506112e083610d02565b92508282039050818111156112f8576112f761121c565b5b92915050565b7f52656420656e76656c6f7065206973206e6f7420736574207965740000000000600082015250565b6000611334601b8361104c565b915061133f826112fe565b602082019050919050565b6000602082019050818103600083015261136381611327565b9050919050565b7f596f75206861766520616c72656164792067726162626564206120726564206560008201527f6e76656c6f706500000000000000000000000000000000000000000000000000602082015250565b60006113c660278361104c565b91506113d18261136a565b604082019050919050565b600060208201905081810360008301526113f5816113b9565b9050919050565b7f416c6c2072656420656e76656c6f7065732068617665206265656e206772616260008201527f6265640000000000000000000000000000000000000000000000000000000000602082015250565b600061145860238361104c565b9150611463826113fc565b604082019050919050565b600060208201905081810360008301526114878161144b565b9050919050565b7f4e487b7100000000000000000000000000000000000000000000000000000000600052601260045260246000fd5b60006114c882610d02565b91506114d383610d02565b9250826114e3576114e261148e565b5b828204905092915050565b6000819050919050565b61150961150482610d02565b6114ee565b82525050565b60006c0100000000000000000000000082029050919050565b60006115338261150f565b9050919050565b600061154582611528565b9050919050565b61155d61155882610e55565b61153a565b82525050565b600061156f82866114f8565b60208201915061157f828561154c565b60148201915061158f82846114f8565b602082019150819050949350505050565b60006115ab82610d02565b91506115b683610d02565b9250826115c6576115c561148e565b5b828206905092915050565b60006115dc82610d02565b91506115e783610d02565b92508282019050808211156115ff576115fe61121c565b5b92915050565b600060608201905061161a6000830186610fb9565b6116276020830185610d0c565b6116346040830184610d0c565b94935050505056fea2646970667358221220237a085af23d09e6061bf7e76855e381612142243f01b6b974dc266e72b1dc0e64736f6c63430008140033",
  "immutableReferences": {},
  "source": "// SPDX-License-Identifier: GPL-3.0\npragma solidity >=0.7.0 <0.9.0;\n\ncontract RedEnvelope {\n    address public owner;\n    \n    address payable public redOwner;\n    // \n    uint256 public totalAmount;\n    // \n    uint256 public count;\n    // \n    bool public isEqual;\n    // \n    uint256 public grabbedCount;\n    // \n    bool public isRedEnvelopeSet;\n    \n    struct GrabInfo {\n        uint256 amount;        // \n        bool hasGrabbed;       // \n        uint256 grabTime;      // \n        uint256 grabIndex;     // \n    }\n    mapping(address => GrabInfo) public grabInfos;\n    address[] public grabbers;  // \n\n    event RedEnvelopeSet(uint256 totalAmount, uint256 count, bool isEqual);\n    event RedEnvelopeGrabbed(address grabber, uint256 amount, uint256 grabIndex);\n\n    constructor() {\n        owner = msg.sender;\n    }\n    function setRedEnvelope(uint256 _count, bool _isEqual) payable public {\n        require(!isRedEnvelopeSet, \"Red envelope already exists, use reset first\");\n        require(msg.value > 0, \"You must send some ether to create a red envelope\");\n        require(_count > 0, \"Count must be greater than 0\");\n        \n        // \n        for (uint i = 0; i < grabbers.length; i++) {\n            delete grabInfos[grabbers[i]];\n        }\n        delete grabbers;\n\n        redOwner = payable(msg.sender);\n        totalAmount = msg.value;\n        count = _count;\n        isEqual = _isEqual;\n        grabbedCount = 0;\n        isRedEnvelopeSet = true;\n        \n        emit RedEnvelopeSet(totalAmount, count, isEqual);\n    }\n\n\n    // \n    function grabRedEnvelope() public {\n        require(isRedEnvelopeSet, \"Red envelope is not set yet\");\n        require(!grabInfos[msg.sender].hasGrabbed, \"You have already grabbed a red envelope\");\n        require(grabbedCount < count, \"All red envelopes have been grabbed\");\n        \n        uint256 amount;\n        \n        if (isEqual) {\n            // \n            amount = totalAmount / count;\n        } else {\n            //  ()\n            if (grabbedCount == count - 1) {\n                // \n                amount = address(this).balance;\n            } else {\n                // 0\n                uint256 remainingCount = count - grabbedCount - 1;\n                uint256 maxAmount = address(this).balance - remainingCount; // 1 wei\n                amount = (uint256(keccak256(abi.encodePacked(block.timestamp, msg.sender, grabbedCount))) % maxAmount) + 1;\n            }\n        }\n        \n        // \n        grabInfos[msg.sender] = GrabInfo({\n            amount: amount,\n            hasGrabbed: true,\n            grabTime: block.timestamp,\n            grabIndex: grabbedCount + 1\n        });\n        \n        grabbers.push(msg.sender);\n\n        grabbedCount++;\n        if (grabbedCount == count) {\n            isRedEnvelopeSet = false; // \n        }\n        \n        payable(msg.sender).transfer(amount);\n        \n        emit RedEnvelopeGrabbed(msg.sender, amount, grabbedCount);\n    }\n\n    // \n    function getUserGrabInfo(address user) public view returns (uint256 amount, bool hasGrabbed, uint256 grabTime, uint256 grabIndex) {\n        GrabInfo memory info = grabInfos[user];\n        return (info.amount, info.hasGrabbed, info.grabTime, info.grabIndex);\n    }\n    \n    // \n    function getAllGrabbers() public view returns (address[] memory) {\n        return grabbers;\n    }\n\n    // \n    function getRemainingCount() public view returns (uint256) {\n        if (!isRedEnvelopeSet) return 0;\n        return count - grabbedCount;\n    }\n    \n    // \n    function getContractBalance() public view returns (uint256) {\n        return address(this).balance;\n    }\n\n}\n",
  "sourcePath": "/Users/lhf/Desktop/repo/full-contracts/contracts/contracts/RedEnvelope.sol",
  "compiler": {
    "name": "solc",
    "version": "0.8.20+commit.a1b79de6.Emscripten.clang"
  },
  "schemaVersion": "3.4.16",
  "updatedAt": "2025-05-28T13:06:36.383Z",
  "networkType": "ethereum",
  "devdoc": {
    "kind": "dev",
    "methods": {},
    "version": 1
  },
  "userdoc": {
    "kind": "user",
    "methods": {},
    "version": 1
  }
}