{
  "contractName": "SimpleDeposit",
  "abi": [
    {
      "inputs": [],
      "stateMutability": "nonpayable",
      "type": "constructor"
    },
    {
      "anonymous": false,
      "inputs": [
        {
          "indexed": true,
          "internalType": "address",
          "name": "from",
          "type": "address"
        },
        {
          "indexed": false,
          "internalType": "uint256",
          "name": "amount",
          "type": "uint256"
        }
      ],
      "name": "Deposited",
      "type": "event"
    },
    {
      "anonymous": false,
      "inputs": [
        {
          "indexed": false,
          "internalType": "string",
          "name": "name",
          "type": "string"
        },
        {
          "indexed": false,
          "internalType": "uint256",
          "name": "age",
          "type": "uint256"
        }
      ],
      "name": "InfoUpdate",
      "type": "event"
    },
    {
      "anonymous": false,
      "inputs": [
        {
          "indexed": true,
          "internalType": "address",
          "name": "to",
          "type": "address"
        },
        {
          "indexed": false,
          "internalType": "uint256",
          "name": "amount",
          "type": "uint256"
        }
      ],
      "name": "Withdrawn",
      "type": "event"
    },
    {
      "stateMutability": "payable",
      "type": "fallback",
      "payable": true
    },
    {
      "inputs": [],
      "name": "balance",
      "outputs": [
        {
          "internalType": "uint256",
          "name": "",
          "type": "uint256"
        }
      ],
      "stateMutability": "view",
      "type": "function",
      "constant": true
    },
    {
      "inputs": [],
      "name": "owner",
      "outputs": [
        {
          "internalType": "address payable",
          "name": "",
          "type": "address"
        }
      ],
      "stateMutability": "view",
      "type": "function",
      "constant": true
    },
    {
      "stateMutability": "payable",
      "type": "receive",
      "payable": true
    },
    {
      "inputs": [],
      "name": "deposit",
      "outputs": [],
      "stateMutability": "payable",
      "type": "function",
      "payable": true
    },
    {
      "inputs": [
        {
          "internalType": "uint256",
          "name": "_num",
          "type": "uint256"
        },
        {
          "internalType": "address payable",
          "name": "_to",
          "type": "address"
        }
      ],
      "name": "withdraw",
      "outputs": [],
      "stateMutability": "nonpayable",
      "type": "function"
    },
    {
      "inputs": [],
      "name": "getBalance",
      "outputs": [
        {
          "internalType": "uint256",
          "name": "",
          "type": "uint256"
        }
      ],
      "stateMutability": "view",
      "type": "function",
      "constant": true
    },
    {
      "inputs": [
        {
          "internalType": "string",
          "name": "_name",
          "type": "string"
        },
        {
          "internalType": "uint256",
          "name": "_age",
          "type": "uint256"
        }
      ],
      "name": "setInfo",
      "outputs": [],
      "stateMutability": "nonpayable",
      "type": "function"
    },
    {
      "inputs": [],
      "name": "sayHello",
      "outputs": [
        {
          "internalType": "string",
          "name": "",
          "type": "string"
        }
      ],
      "stateMutability": "pure",
      "type": "function",
      "constant": true
    }
  ],
  "bytecode": "0x608060405234801561001057600080fd5b50336000806101000a81548173ffffffffffffffffffffffffffffffffffffffff021916908373ffffffffffffffffffffffffffffffffffffffff160217905550610d16806100606000396000f3fe608060405260043610610090576000357c0100000000000000000000000000000000000000000000000000000000900480638da5cb5b1161006b5780638da5cb5b146101b2578063b69ef8a8146101dd578063d0e30db014610208578063ef5fb05b14610212576100e5565b8062f714ce1461013557806312065fe01461015e5780638262963b14610189576100e5565b366100e5573373ffffffffffffffffffffffffffffffffffffffff167f2da466a7b24304f47e87fa2e1e5a81b9831ce54fec19055ce277ca2f39ba42c4346040516100db9190610505565b60405180910390a2005b3373ffffffffffffffffffffffffffffffffffffffff167f2da466a7b24304f47e87fa2e1e5a81b9831ce54fec19055ce277ca2f39ba42c43460405161012b9190610505565b60405180910390a2005b34801561014157600080fd5b5061015c600480360381019061015791906105be565b61023d565b005b34801561016a57600080fd5b506101736103a9565b6040516101809190610505565b60405180910390f35b34801561019557600080fd5b506101b060048036038101906101ab9190610744565b6103c8565b005b3480156101be57600080fd5b506101c761041c565b6040516101d491906107af565b60405180910390f35b3480156101e957600080fd5b506101f2610440565b6040516101ff9190610505565b60405180910390f35b610210610446565b005b34801561021e57600080fd5b506102276104af565b6040516102349190610849565b60405180910390f35b60008054906101000a900473ffffffffffffffffffffffffffffffffffffffff1673ffffffffffffffffffffffffffffffffffffffff163373ffffffffffffffffffffffffffffffffffffffff16146102cb576040517f08c379a00000000000000000000000000000000000000000000000000000000081526004016102c2906108dd565b60405180910390fd5b816001541015610310576040517f08c379a000000000000000000000000000000000000000000000000000000000815260040161030790610949565b60405180910390fd5b8073ffffffffffffffffffffffffffffffffffffffff166108fc839081150290604051600060405180830381858888f19350505050158015610356573d6000803e3d6000fd5b508073ffffffffffffffffffffffffffffffffffffffff167f7084f5476618d8e60b11ef0d7d3f06914655adb8793e28ff7f018d4c76d505d58360405161039d9190610505565b60405180910390a25050565b60003073ffffffffffffffffffffffffffffffffffffffff1631905090565b81600290816103d79190610b7b565b50806003819055507fa73a86336b3569764a4e6934f0601c0cf27530846c4447eed83ad2f9e3f478f48282604051610410929190610c4d565b60405180910390a15050565b60008054906101000a900473ffffffffffffffffffffffffffffffffffffffff1681565b60015481565b34600160008282546104589190610cac565b925050819055503373ffffffffffffffffffffffffffffffffffffffff167f2da466a7b24304f47e87fa2e1e5a81b9831ce54fec19055ce277ca2f39ba42c4346040516104a59190610505565b60405180910390a2565b60606040518060400160405280600d81526020017f48656c6c6f2c20576f726c642100000000000000000000000000000000000000815250905090565b6000819050919050565b6104ff816104ec565b82525050565b600060208201905061051a60008301846104f6565b92915050565b6000604051905090565b600080fd5b600080fd5b61053d816104ec565b811461054857600080fd5b50565b60008135905061055a81610534565b92915050565b600073ffffffffffffffffffffffffffffffffffffffff82169050919050565b600061058b82610560565b9050919050565b61059b81610580565b81146105a657600080fd5b50565b6000813590506105b881610592565b92915050565b600080604083850312156105d5576105d461052a565b5b60006105e38582860161054b565b92505060206105f4858286016105a9565b9150509250929050565b600080fd5b600080fd5b6000601f19601f8301169050919050565b7f4e487b7100000000000000000000000000000000000000000000000000000000600052604160045260246000fd5b61065182610608565b810181811067ffffffffffffffff821117156106705761066f610619565b5b80604052505050565b6000610683610520565b905061068f8282610648565b919050565b600067ffffffffffffffff8211156106af576106ae610619565b5b6106b882610608565b9050602081019050919050565b82818337600083830152505050565b60006106e76106e284610694565b610679565b90508281526020810184848401111561070357610702610603565b5b61070e8482856106c5565b509392505050565b600082601f83011261072b5761072a6105fe565b5b813561073b8482602086016106d4565b91505092915050565b6000806040838503121561075b5761075a61052a565b5b600083013567ffffffffffffffff8111156107795761077861052f565b5b61078585828601610716565b92505060206107968582860161054b565b9150509250929050565b6107a981610580565b82525050565b60006020820190506107c460008301846107a0565b92915050565b600081519050919050565b600082825260208201905092915050565b60005b838110156108045780820151818401526020810190506107e9565b60008484015250505050565b600061081b826107ca565b61082581856107d5565b93506108358185602086016107e6565b61083e81610608565b840191505092915050565b600060208201905081810360008301526108638184610810565b905092915050565b7f796f7520646f206e6f74206861766520726967687420746f207769746864726160008201527f7700000000000000000000000000000000000000000000000000000000000000602082015250565b60006108c76021836107d5565b91506108d28261086b565b604082019050919050565b600060208201905081810360008301526108f6816108ba565b9050919050565b7f796f7520646f206e6f74206861766520656e6f756768206d6f6e657900000000600082015250565b6000610933601c836107d5565b915061093e826108fd565b602082019050919050565b6000602082019050818103600083015261096281610926565b9050919050565b7f4e487b7100000000000000000000000000000000000000000000000000000000600052602260045260246000fd5b600060028204905060018216806109b057607f821691505b6020821081036109c3576109c2610969565b5b50919050565b60008190508160005260206000209050919050565b60006020601f8301049050919050565b60008160020a8302905092915050565b600060088302610a2e7fffffffffffffffffffffffffffffffffffffffffffffffffffffffffffffffff826109ee565b610a3886836109ee565b95508019841693508086168417925050509392505050565b6000819050919050565b6000610a75610a70610a6b846104ec565b610a50565b6104ec565b9050919050565b6000819050919050565b610a8f83610a5a565b610aa3610a9b82610a7c565b8484546109fe565b825550505050565b600090565b610ab8610aab565b610ac3818484610a86565b505050565b5b81811015610ae757610adc600082610ab0565b600181019050610ac9565b5050565b601f821115610b2c57610afd816109c9565b610b06846109de565b81016020851015610b15578190505b610b29610b21856109de565b830182610ac8565b50505b505050565b60008160020a8304905092915050565b6000610b5260001984600802610b31565b1980831691505092915050565b6000610b6b8383610b41565b9150826002028217905092915050565b610b84826107ca565b67ffffffffffffffff811115610b9d57610b9c610619565b5b610ba78254610998565b610bb2828285610aeb565b600060209050601f831160018114610be55760008415610bd3578287015190505b610bdd8582610b5f565b865550610c45565b601f198416610bf3866109c9565b60005b82811015610c1b57848901518255600182019150602085019450602081019050610bf6565b86831015610c385784890151610c34601f891682610b41565b8355505b6001600288020188555050505b505050505050565b60006040820190508181036000830152610c678185610810565b9050610c7660208301846104f6565b9392505050565b7f4e487b7100000000000000000000000000000000000000000000000000000000600052601160045260246000fd5b6000610cb7826104ec565b9150610cc2836104ec565b9250828201905080821115610cda57610cd9610c7d565b5b9291505056fea264697066735822122018c2762c85dc59d48a5e58ec1b04637d841ef82466b1dd41829fe19827662d7664736f6c63430008140033",
  "immutableReferences": {},
  "source": "// SPDX-License-Identifier: GPL-3.0\npragma solidity >=0.7.0 <0.9.0;\n\ncontract SimpleDeposit {\n    address payable public owner;\n    uint256 public balance;\n    string name;\n    uint256 age;\n\n    event Deposited(address indexed from, uint256 amount);\n    event Withdrawn(address indexed to, uint256 amount);\n    event InfoUpdate(string name, uint256 age);\n    constructor() {\n        owner = payable(msg.sender);\n    }\n\n    // \n    function deposit() public payable {\n        balance += msg.value;\n        emit Deposited(msg.sender, msg.value);\n    }\n\n    // \n    function withdraw(uint256 _num, address payable _to) public {\n        require(msg.sender == owner, \"you do not have right to withdraw\");\n        require(balance >= _num, \"you do not have enough money\");\n        payable(_to).transfer(_num);\n        emit Withdrawn(_to, _num);\n    }\n\n    // \n    function getBalance() public view returns (uint256) {\n        return address(this).balance;\n    }\n\n    function setInfo(string memory _name, uint256 _age) public {\n        name = _name;\n        age = _age;\n        emit InfoUpdate(_name, _age);\n    }\n    \n    function sayHello() public pure returns (string memory) {\n        return \"Hello, World!\";\n    }\n\n    // fallback  receive \n    receive() external payable {\n        emit Deposited(msg.sender, msg.value);\n    }\n\n    fallback() external payable {\n        emit Deposited(msg.sender, msg.value);\n    }\n}\n",
  "sourcePath": "/Users/lhf/Desktop/repo/full-contracts/contracts/contracts/SimpleDeposit.sol",
  "compiler": {
    "name": "solc",
    "version": "0.8.20+commit.a1b79de6.Emscripten.clang"
  },
  "schemaVersion": "3.4.16",
  "updatedAt": "2025-05-24T15:59:51.036Z",
  "networkType": "ethereum",
  "devdoc": {
    "kind": "dev",
    "methods": {},
    "version": 1
  },
  "userdoc": {
    "kind": "user",
    "methods": {},
    "version": 1
  }
}