{
  "contractName": "SimpleDeposit",
  "abi": [
    {
      "inputs": [],
      "stateMutability": "nonpayable",
      "type": "constructor"
    },
    {
      "anonymous": false,
      "inputs": [
        {
          "indexed": true,
          "internalType": "address",
          "name": "from",
          "type": "address"
        },
        {
          "indexed": false,
          "internalType": "uint256",
          "name": "amount",
          "type": "uint256"
        }
      ],
      "name": "Deposited",
      "type": "event"
    },
    {
      "anonymous": false,
      "inputs": [
        {
          "indexed": false,
          "internalType": "string",
          "name": "name",
          "type": "string"
        },
        {
          "indexed": false,
          "internalType": "uint256",
          "name": "age",
          "type": "uint256"
        }
      ],
      "name": "InfoUpdate",
      "type": "event"
    },
    {
      "anonymous": false,
      "inputs": [
        {
          "indexed": true,
          "internalType": "address",
          "name": "to",
          "type": "address"
        },
        {
          "indexed": false,
          "internalType": "uint256",
          "name": "amount",
          "type": "uint256"
        }
      ],
      "name": "Withdrawn",
      "type": "event"
    },
    {
      "stateMutability": "payable",
      "type": "fallback",
      "payable": true
    },
    {
      "inputs": [],
      "name": "owner",
      "outputs": [
        {
          "internalType": "address payable",
          "name": "",
          "type": "address"
        }
      ],
      "stateMutability": "view",
      "type": "function",
      "constant": true
    },
    {
      "stateMutability": "payable",
      "type": "receive",
      "payable": true
    },
    {
      "inputs": [],
      "name": "deposit",
      "outputs": [],
      "stateMutability": "payable",
      "type": "function",
      "payable": true
    },
    {
      "inputs": [
        {
          "internalType": "uint256",
          "name": "amount",
          "type": "uint256"
        },
        {
          "internalType": "address payable",
          "name": "to",
          "type": "address"
        }
      ],
      "name": "withdraw",
      "outputs": [],
      "stateMutability": "nonpayable",
      "type": "function"
    },
    {
      "inputs": [],
      "name": "getBalance",
      "outputs": [
        {
          "internalType": "uint256",
          "name": "",
          "type": "uint256"
        }
      ],
      "stateMutability": "view",
      "type": "function",
      "constant": true
    },
    {
      "inputs": [
        {
          "internalType": "string",
          "name": "_name",
          "type": "string"
        },
        {
          "internalType": "uint256",
          "name": "_age",
          "type": "uint256"
        }
      ],
      "name": "setInfo",
      "outputs": [],
      "stateMutability": "nonpayable",
      "type": "function"
    },
    {
      "inputs": [],
      "name": "sayHello",
      "outputs": [
        {
          "internalType": "string",
          "name": "",
          "type": "string"
        }
      ],
      "stateMutability": "pure",
      "type": "function",
      "constant": true
    }
  ],
  "bytecode": "0x608060405234801561001057600080fd5b50336000806101000a81548173ffffffffffffffffffffffffffffffffffffffff021916908373ffffffffffffffffffffffffffffffffffffffff160217905550610d12806100606000396000f3fe608060405260043610610075576000357c010000000000000000000000000000000000000000000000000000000090048062f714ce1461011a57806312065fe0146101435780638262963b1461016e5780638da5cb5b14610197578063d0e30db0146101c2578063ef5fb05b146101cc576100ca565b366100ca573373ffffffffffffffffffffffffffffffffffffffff167f2da466a7b24304f47e87fa2e1e5a81b9831ce54fec19055ce277ca2f39ba42c4346040516100c091906104f8565b60405180910390a2005b3373ffffffffffffffffffffffffffffffffffffffff167f2da466a7b24304f47e87fa2e1e5a81b9831ce54fec19055ce277ca2f39ba42c43460405161011091906104f8565b60405180910390a2005b34801561012657600080fd5b50610141600480360381019061013c91906105b1565b6101f7565b005b34801561014f57600080fd5b50610158610378565b60405161016591906104f8565b60405180910390f35b34801561017a57600080fd5b5061019560048036038101906101909190610737565b610397565b005b3480156101a357600080fd5b506101ac6103eb565b6040516101b991906107a2565b60405180910390f35b6101ca61040f565b005b3480156101d857600080fd5b506101e16104a2565b6040516101ee919061083c565b60405180910390f35b60008054906101000a900473ffffffffffffffffffffffffffffffffffffffff1673ffffffffffffffffffffffffffffffffffffffff163373ffffffffffffffffffffffffffffffffffffffff1614610285576040517f08c379a000000000000000000000000000000000000000000000000000000000815260040161027c906108aa565b60405180910390fd5b813073ffffffffffffffffffffffffffffffffffffffff163110156102df576040517f08c379a00000000000000000000000000000000000000000000000000000000081526004016102d690610916565b60405180910390fd5b8073ffffffffffffffffffffffffffffffffffffffff166108fc839081150290604051600060405180830381858888f19350505050158015610325573d6000803e3d6000fd5b508073ffffffffffffffffffffffffffffffffffffffff167f7084f5476618d8e60b11ef0d7d3f06914655adb8793e28ff7f018d4c76d505d58360405161036c91906104f8565b60405180910390a25050565b60003073ffffffffffffffffffffffffffffffffffffffff1631905090565b81600190816103a69190610b48565b50806002819055507fa73a86336b3569764a4e6934f0601c0cf27530846c4447eed83ad2f9e3f478f482826040516103df929190610c1a565b60405180910390a15050565b60008054906101000a900473ffffffffffffffffffffffffffffffffffffffff1681565b60003411610452576040517f08c379a000000000000000000000000000000000000000000000000000000000815260040161044990610cbc565b60405180910390fd5b3373ffffffffffffffffffffffffffffffffffffffff167f2da466a7b24304f47e87fa2e1e5a81b9831ce54fec19055ce277ca2f39ba42c43460405161049891906104f8565b60405180910390a2565b60606040518060400160405280600d81526020017f48656c6c6f2c20576f726c642100000000000000000000000000000000000000815250905090565b6000819050919050565b6104f2816104df565b82525050565b600060208201905061050d60008301846104e9565b92915050565b6000604051905090565b600080fd5b600080fd5b610530816104df565b811461053b57600080fd5b50565b60008135905061054d81610527565b92915050565b600073ffffffffffffffffffffffffffffffffffffffff82169050919050565b600061057e82610553565b9050919050565b61058e81610573565b811461059957600080fd5b50565b6000813590506105ab81610585565b92915050565b600080604083850312156105c8576105c761051d565b5b60006105d68582860161053e565b92505060206105e78582860161059c565b9150509250929050565b600080fd5b600080fd5b6000601f19601f8301169050919050565b7f4e487b7100000000000000000000000000000000000000000000000000000000600052604160045260246000fd5b610644826105fb565b810181811067ffffffffffffffff821117156106635761066261060c565b5b80604052505050565b6000610676610513565b9050610682828261063b565b919050565b600067ffffffffffffffff8211156106a2576106a161060c565b5b6106ab826105fb565b9050602081019050919050565b82818337600083830152505050565b60006106da6106d584610687565b61066c565b9050828152602081018484840111156106f6576106f56105f6565b5b6107018482856106b8565b509392505050565b600082601f83011261071e5761071d6105f1565b5b813561072e8482602086016106c7565b91505092915050565b6000806040838503121561074e5761074d61051d565b5b600083013567ffffffffffffffff81111561076c5761076b610522565b5b61077885828601610709565b92505060206107898582860161053e565b9150509250929050565b61079c81610573565b82525050565b60006020820190506107b76000830184610793565b92915050565b600081519050919050565b600082825260208201905092915050565b60005b838110156107f75780820151818401526020810190506107dc565b60008484015250505050565b600061080e826107bd565b61081881856107c8565b93506108288185602086016107d9565b610831816105fb565b840191505092915050565b600060208201905081810360008301526108568184610803565b905092915050565b7f4f6e6c79206f776e65722063616e207769746864726177000000000000000000600082015250565b60006108946017836107c8565b915061089f8261085e565b602082019050919050565b600060208201905081810360008301526108c381610887565b9050919050565b7f496e73756666696369656e7420636f6e74726163742062616c616e6365000000600082015250565b6000610900601d836107c8565b915061090b826108ca565b602082019050919050565b6000602082019050818103600083015261092f816108f3565b9050919050565b7f4e487b7100000000000000000000000000000000000000000000000000000000600052602260045260246000fd5b6000600282049050600182168061097d57607f821691505b6020821081036109905761098f610936565b5b50919050565b60008190508160005260206000209050919050565b60006020601f8301049050919050565b60008160020a8302905092915050565b6000600883026109fb7fffffffffffffffffffffffffffffffffffffffffffffffffffffffffffffffff826109bb565b610a0586836109bb565b95508019841693508086168417925050509392505050565b6000819050919050565b6000610a42610a3d610a38846104df565b610a1d565b6104df565b9050919050565b6000819050919050565b610a5c83610a27565b610a70610a6882610a49565b8484546109cb565b825550505050565b600090565b610a85610a78565b610a90818484610a53565b505050565b5b81811015610ab457610aa9600082610a7d565b600181019050610a96565b5050565b601f821115610af957610aca81610996565b610ad3846109ab565b81016020851015610ae2578190505b610af6610aee856109ab565b830182610a95565b50505b505050565b60008160020a8304905092915050565b6000610b1f60001984600802610afe565b1980831691505092915050565b6000610b388383610b0e565b9150826002028217905092915050565b610b51826107bd565b67ffffffffffffffff811115610b6a57610b6961060c565b5b610b748254610965565b610b7f828285610ab8565b600060209050601f831160018114610bb25760008415610ba0578287015190505b610baa8582610b2c565b865550610c12565b601f198416610bc086610996565b60005b82811015610be857848901518255600182019150602085019450602081019050610bc3565b86831015610c055784890151610c01601f891682610b0e565b8355505b6001600288020188555050505b505050505050565b60006040820190508181036000830152610c348185610803565b9050610c4360208301846104e9565b9392505050565b7f4465706f73697420616d6f756e74206d7573742062652067726561746572207460008201527f68616e207a65726f000000000000000000000000000000000000000000000000602082015250565b6000610ca66028836107c8565b9150610cb182610c4a565b604082019050919050565b60006020820190508181036000830152610cd581610c99565b905091905056fea2646970667358221220aacca713bb04e677b43012a49058c95af547580f8ebf9fa955eeb41ee6cbc0d064736f6c63430008140033",
  "immutableReferences": {},
  "source": "// SPDX-License-Identifier: GPL-3.0\npragma solidity >=0.7.0 <0.9.0;\n\ncontract SimpleDeposit {\n    address payable public owner;\n    string name;\n    uint256 age;\n\n    event Deposited(address indexed from, uint256 amount);\n    event Withdrawn(address indexed to, uint256 amount);\n    event InfoUpdate(string name, uint256 age);\n    constructor() {\n        owner = payable(msg.sender);\n    }\n\n    // \n    function deposit() public payable {\n        require(msg.value > 0, \"Deposit amount must be greater than zero\");\n        emit Deposited(msg.sender, msg.value);\n    }\n\n    // \n    function withdraw(uint256 amount, address payable to) public {\n        require(msg.sender == owner, \"Only owner can withdraw\");\n        require(address(this).balance >= amount, \"Insufficient contract balance\");\n\n        to.transfer(amount);\n        emit Withdrawn(to, amount);\n    }\n\n    // \n    function getBalance() public view returns (uint256) {\n        return address(this).balance;\n    }\n\n    function setInfo(string memory _name, uint256 _age) public {\n        name = _name;\n        age = _age;\n        emit InfoUpdate(_name, _age);\n    }\n    \n    function sayHello() public pure returns (string memory) {\n        return \"Hello, World!\";\n    }\n\n    // fallback  receive \n    receive() external payable {\n        emit Deposited(msg.sender, msg.value);\n    }\n\n    fallback() external payable {\n        emit Deposited(msg.sender, msg.value);\n    }\n}\n",
  "sourcePath": "/Users/lhf/Desktop/repo/full-contracts/contracts/contracts/SimpleDeposit.sol",
  "compiler": {
    "name": "solc",
    "version": "0.8.20+commit.a1b79de6.Emscripten.clang"
  },
  "schemaVersion": "3.4.16",
  "updatedAt": "2025-05-24T15:33:25.890Z",
  "networkType": "ethereum",
  "devdoc": {
    "kind": "dev",
    "methods": {},
    "version": 1
  },
  "userdoc": {
    "kind": "user",
    "methods": {},
    "version": 1
  }
}